{
  "_format": "hh-sol-artifact-1",
  "contractName": "ZKBounty",
  "sourceName": "contracts/ZKBounty.sol",
  "abi": [
    {
      "inputs": [],
      "name": "ReentrancyGuardReentrantCall",
      "type": "error"
    },
    {
      "anonymous": false,
      "inputs": [
        {
          "indexed": true,
          "internalType": "bytes32",
          "name": "bountyId",
          "type": "bytes32"
        },
        {
          "indexed": true,
          "internalType": "address",
          "name": "submitter",
          "type": "address"
        },
        {
          "indexed": false,
          "internalType": "uint8",
          "name": "bountyType",
          "type": "uint8"
        },
        {
          "indexed": false,
          "internalType": "uint256",
          "name": "reward",
          "type": "uint256"
        }
      ],
      "name": "BountySubmitted",
      "type": "event"
    },
    {
      "anonymous": false,
      "inputs": [
        {
          "indexed": true,
          "internalType": "bytes32",
          "name": "bountyId",
          "type": "bytes32"
        }
      ],
      "name": "BountyWithdrawn",
      "type": "event"
    },
    {
      "anonymous": false,
      "inputs": [
        {
          "indexed": true,
          "internalType": "bytes32",
          "name": "bountyId",
          "type": "bytes32"
        },
        {
          "indexed": true,
          "internalType": "address",
          "name": "hunter",
          "type": "address"
        }
      ],
      "name": "HunterRegistered",
      "type": "event"
    },
    {
      "anonymous": false,
      "inputs": [
        {
          "indexed": true,
          "internalType": "address",
          "name": "issuer",
          "type": "address"
        }
      ],
      "name": "IssuerRegistered",
      "type": "event"
    },
    {
      "anonymous": false,
      "inputs": [
        {
          "indexed": true,
          "internalType": "bytes32",
          "name": "bountyId",
          "type": "bytes32"
        }
      ],
      "name": "ReportApproved",
      "type": "event"
    },
    {
      "anonymous": false,
      "inputs": [
        {
          "indexed": true,
          "internalType": "bytes32",
          "name": "bountyId",
          "type": "bytes32"
        }
      ],
      "name": "ReportRejected",
      "type": "event"
    },
    {
      "anonymous": false,
      "inputs": [
        {
          "indexed": true,
          "internalType": "bytes32",
          "name": "bountyId",
          "type": "bytes32"
        },
        {
          "indexed": true,
          "internalType": "address",
          "name": "worker",
          "type": "address"
        },
        {
          "indexed": false,
          "internalType": "bytes32",
          "name": "reportHash",
          "type": "bytes32"
        }
      ],
      "name": "ReportSubmitted",
      "type": "event"
    },
    {
      "inputs": [
        {
          "internalType": "bytes32",
          "name": "bountyId",
          "type": "bytes32"
        },
        {
          "internalType": "address payable",
          "name": "hunter",
          "type": "address"
        },
        {
          "internalType": "bytes32",
          "name": "hash",
          "type": "bytes32"
        }
      ],
      "name": "finalizeReport",
      "outputs": [],
      "stateMutability": "payable",
      "type": "function"
    },
    {
      "inputs": [
        {
          "internalType": "bytes32",
          "name": "bountyId",
          "type": "bytes32"
        }
      ],
      "name": "getBounty",
      "outputs": [
        {
          "internalType": "address",
          "name": "submitter",
          "type": "address"
        },
        {
          "internalType": "uint8",
          "name": "bountyType",
          "type": "uint8"
        },
        {
          "internalType": "uint256",
          "name": "reward",
          "type": "uint256"
        },
        {
          "internalType": "string",
          "name": "bountyHash",
          "type": "string"
        },
        {
          "internalType": "string",
          "name": "uri",
          "type": "string"
        },
        {
          "internalType": "bool",
          "name": "isApproved",
          "type": "bool"
        }
      ],
      "stateMutability": "view",
      "type": "function"
    },
    {
      "inputs": [
        {
          "internalType": "uint256",
          "name": "index",
          "type": "uint256"
        }
      ],
      "name": "getBountyAtIndex",
      "outputs": [
        {
          "internalType": "bytes32",
          "name": "",
          "type": "bytes32"
        }
      ],
      "stateMutability": "view",
      "type": "function"
    },
    {
      "inputs": [],
      "name": "getBountyIds",
      "outputs": [
        {
          "internalType": "bytes32[]",
          "name": "",
          "type": "bytes32[]"
        }
      ],
      "stateMutability": "view",
      "type": "function"
    },
    {
      "inputs": [
        {
          "internalType": "bytes32",
          "name": "bountyId",
          "type": "bytes32"
        }
      ],
      "name": "getBountyReward",
      "outputs": [
        {
          "internalType": "uint256",
          "name": "amount",
          "type": "uint256"
        }
      ],
      "stateMutability": "view",
      "type": "function"
    },
    {
      "inputs": [
        {
          "internalType": "bytes32",
          "name": "bountyId",
          "type": "bytes32"
        }
      ],
      "name": "getHuntersInBounty",
      "outputs": [
        {
          "internalType": "address[]",
          "name": "",
          "type": "address[]"
        }
      ],
      "stateMutability": "view",
      "type": "function"
    },
    {
      "inputs": [
        {
          "internalType": "bytes32",
          "name": "bountyId",
          "type": "bytes32"
        },
        {
          "internalType": "address",
          "name": "hunter",
          "type": "address"
        }
      ],
      "name": "getReportHash",
      "outputs": [
        {
          "internalType": "bytes32",
          "name": "",
          "type": "bytes32"
        }
      ],
      "stateMutability": "view",
      "type": "function"
    },
    {
      "inputs": [
        {
          "internalType": "bytes32",
          "name": "bountyId",
          "type": "bytes32"
        }
      ],
      "name": "getSubmittedReportsInBounty",
      "outputs": [
        {
          "internalType": "bytes32[]",
          "name": "",
          "type": "bytes32[]"
        }
      ],
      "stateMutability": "view",
      "type": "function"
    },
    {
      "inputs": [
        {
          "internalType": "address",
          "name": "issuer",
          "type": "address"
        }
      ],
      "name": "isRegisteredIssuer",
      "outputs": [
        {
          "internalType": "bool",
          "name": "",
          "type": "bool"
        }
      ],
      "stateMutability": "view",
      "type": "function"
    },
    {
      "inputs": [],
      "name": "registerIssuer",
      "outputs": [],
      "stateMutability": "nonpayable",
      "type": "function"
    },
    {
      "inputs": [
        {
          "internalType": "bytes32",
          "name": "bountyId",
          "type": "bytes32"
        }
      ],
      "name": "registerToBounty",
      "outputs": [],
      "stateMutability": "nonpayable",
      "type": "function"
    },
    {
      "inputs": [
        {
          "internalType": "uint8",
          "name": "bountyType",
          "type": "uint8"
        },
        {
          "internalType": "uint256",
          "name": "reward",
          "type": "uint256"
        },
        {
          "internalType": "string",
          "name": "bountyHash",
          "type": "string"
        }
      ],
      "name": "submitBounty",
      "outputs": [
        {
          "internalType": "bytes32",
          "name": "",
          "type": "bytes32"
        }
      ],
      "stateMutability": "payable",
      "type": "function"
    },
    {
      "inputs": [
        {
          "internalType": "bytes32",
          "name": "bountyId",
          "type": "bytes32"
        },
        {
          "internalType": "bytes32",
          "name": "reportHash",
          "type": "bytes32"
        }
      ],
      "name": "submitReport",
      "outputs": [],
      "stateMutability": "nonpayable",
      "type": "function"
    },
    {
      "inputs": [
        {
          "internalType": "bytes32",
          "name": "bountyId",
          "type": "bytes32"
        }
      ],
      "name": "withdrawUnapprovedBounty",
      "outputs": [],
      "stateMutability": "nonpayable",
      "type": "function"
    }
  ],
  "bytecode": "0x608060405234801561001057600080fd5b506001600081905550612d83806100286000396000f3fe6080604052600436106100dd5760003560e01c8063a453d35a1161007f578063c495524c11610059578063c495524c146102e1578063d8219f151461030a578063d950c07714610347578063f70693f314610384576100dd565b8063a453d35a1461023e578063b711bf851461027b578063bfa5d3e6146102a4576100dd565b806336be661e116100bb57806336be661e146101915780633d4b998f146101ce578063644ca522146101ea5780639eed129614610213576100dd565b8063101b4ad9146100e25780632417395c146101125780632d33d7d514610154575b600080fd5b6100fc60048036038101906100f79190611e35565b61039b565b6040516101099190611ebd565b60405180910390f35b34801561011e57600080fd5b5061013960048036038101906101349190611f04565b6105ee565b60405161014b9695949392919061202a565b60405180910390f35b34801561016057600080fd5b5061017b600480360381019061017691906120c5565b61083a565b60405161018891906120f2565b60405180910390f35b34801561019d57600080fd5b506101b860048036038101906101b39190611f04565b610890565b6040516101c591906121cb565b60405180910390f35b6101e860048036038101906101e3919061222b565b6109e1565b005b3480156101f657600080fd5b50610211600480360381019061020c919061227e565b610de3565b005b34801561021f57600080fd5b50610228610fa1565b604051610235919061237c565b60405180910390f35b34801561024a57600080fd5b5061026560048036038101906102609190611f04565b610ff9565b604051610272919061237c565b60405180910390f35b34801561028757600080fd5b506102a2600480360381019061029d9190611f04565b61124a565b005b3480156102b057600080fd5b506102cb60048036038101906102c6919061239e565b6114ad565b6040516102d89190611ebd565b60405180910390f35b3480156102ed57600080fd5b5061030860048036038101906103039190611f04565b6115b8565b005b34801561031657600080fd5b50610331600480360381019061032c9190611f04565b611978565b60405161033e91906123de565b60405180910390f35b34801561035357600080fd5b5061036e600480360381019061036991906123f9565b611a45565b60405161037b9190611ebd565b60405180910390f35b34801561039057600080fd5b50610399611ab4565b005b6000600460003373ffffffffffffffffffffffffffffffffffffffff1673ffffffffffffffffffffffffffffffffffffffff16815260200190815260200160002060009054906101000a900460ff16610429576040517f08c379a000000000000000000000000000000000000000000000000000000000815260040161042090612472565b60405180910390fd5b82341461046b576040517f08c379a000000000000000000000000000000000000000000000000000000000815260040161046290612504565b60405180910390fd5b60003385844360405160200161048494939291906125ff565b6040516020818303038152906040528051906020012090506000600160008381526020019081526020016000209050338160000160006101000a81548173ffffffffffffffffffffffffffffffffffffffff021916908373ffffffffffffffffffffffffffffffffffffffff160217905550858160000160146101000a81548160ff021916908360ff1602179055508481600101819055508381600201908161052d9190612855565b5060008160040160006101000a81548160ff021916908315150217905550600380549050600260008481526020019081526020016000208190555060038290806001815401808255809150506001900390600052602060002001600090919091909150553373ffffffffffffffffffffffffffffffffffffffff16827f6023f5834371b19dd4ce9f15332fd4ff9813edfdb6e3f8c1438c414760e0662c88886040516105da929190612927565b60405180910390a381925050509392505050565b6000806000606080600086600073ffffffffffffffffffffffffffffffffffffffff166001600083815260200190815260200160002060000160009054906101000a900473ffffffffffffffffffffffffffffffffffffffff1673ffffffffffffffffffffffffffffffffffffffff160361069e576040517f08c379a00000000000000000000000000000000000000000000000000000000081526004016106959061299c565b60405180910390fd5b6000600160008a815260200190815260200160002090508060000160009054906101000a900473ffffffffffffffffffffffffffffffffffffffff168160000160149054906101000a900460ff16826001015483600201846003018560040160009054906101000a900460ff1682805461071790612678565b80601f016020809104026020016040519081016040528092919081815260200182805461074390612678565b80156107905780601f1061076557610100808354040283529160200191610790565b820191906000526020600020905b81548152906001019060200180831161077357829003601f168201915b505050505092508180546107a390612678565b80601f01602080910402602001604051908101604052809291908181526020018280546107cf90612678565b801561081c5780601f106107f15761010080835404028352916020019161081c565b820191906000526020600020905b8154815290600101906020018083116107ff57829003601f168201915b50505050509150975097509750975097509750505091939550919395565b6000600460008373ffffffffffffffffffffffffffffffffffffffff1673ffffffffffffffffffffffffffffffffffffffff16815260200190815260200160002060009054906101000a900460ff169050919050565b606081600073ffffffffffffffffffffffffffffffffffffffff166001600083815260200190815260200160002060000160009054906101000a900473ffffffffffffffffffffffffffffffffffffffff1673ffffffffffffffffffffffffffffffffffffffff1603610938576040517f08c379a000000000000000000000000000000000000000000000000000000000815260040161092f9061299c565b60405180910390fd5b6000600160008581526020019081526020016000209050806005018054806020026020016040519081016040528092919081815260200182805480156109d357602002820191906000526020600020905b8160009054906101000a900473ffffffffffffffffffffffffffffffffffffffff1673ffffffffffffffffffffffffffffffffffffffff1681526020019060010190808311610989575b505050505092505050919050565b82600073ffffffffffffffffffffffffffffffffffffffff166001600083815260200190815260200160002060000160009054906101000a900473ffffffffffffffffffffffffffffffffffffffff1673ffffffffffffffffffffffffffffffffffffffff1603610a87576040517f08c379a0000000000000000000000000000000000000000000000000000000008152600401610a7e9061299c565b60405180910390fd5b833373ffffffffffffffffffffffffffffffffffffffff166001600083815260200190815260200160002060000160009054906101000a900473ffffffffffffffffffffffffffffffffffffffff1673ffffffffffffffffffffffffffffffffffffffff1614610b2c576040517f08c379a0000000000000000000000000000000000000000000000000000000008152600401610b2390612a08565b60405180910390fd5b846001600082815260200190815260200160002060040160009054906101000a900460ff1615610b91576040517f08c379a0000000000000000000000000000000000000000000000000000000008152600401610b8890612a74565b60405180910390fd5b610b99611bde565b600060016000888152602001908152602001600020905060008160060160008873ffffffffffffffffffffffffffffffffffffffff1673ffffffffffffffffffffffffffffffffffffffff1681526020019081526020016000205403610c34576040517f08c379a0000000000000000000000000000000000000000000000000000000008152600401610c2b90612ae0565b60405180910390fd5b6000610c4088886114ad565b9050600082600101549050868203610d925760018360040160006101000a81548160ff0219169083151502179055506000600260008b815260200190815260200160002054905060036001600380549050610c9b9190612b2f565b81548110610cac57610cab612b63565b5b906000526020600020015460038281548110610ccb57610cca612b63565b5b90600052602060002001819055506003805480610ceb57610cea612b92565b5b60019003818190600052602060002001600090559055600260008b815260200190815260200160002060009055897fcd2fd6d13194dd283403d723d957fda9eaf4ee1164ddc791e434dd54fb136cec60405160405180910390a28873ffffffffffffffffffffffffffffffffffffffff166108fc839081150290604051600060405180830381858888f19350505050158015610d8b573d6000803e3d6000fd5b5050610dd0565b826005016000610da29190611c2e565b887fab57c17081dd57c5c22447564e95874b771f05222f00192228e67514d9e6a2c260405160405180910390a25b505050610ddb611c24565b505050505050565b81600073ffffffffffffffffffffffffffffffffffffffff166001600083815260200190815260200160002060000160009054906101000a900473ffffffffffffffffffffffffffffffffffffffff1673ffffffffffffffffffffffffffffffffffffffff1603610e89576040517f08c379a0000000000000000000000000000000000000000000000000000000008152600401610e809061299c565b60405180910390fd5b826001600082815260200190815260200160002060040160009054906101000a900460ff1615610eee576040517f08c379a0000000000000000000000000000000000000000000000000000000008152600401610ee590612a74565b60405180910390fd5b6000600160008681526020019081526020016000209050838160060160003373ffffffffffffffffffffffffffffffffffffffff1673ffffffffffffffffffffffffffffffffffffffff168152602001908152602001600020819055503373ffffffffffffffffffffffffffffffffffffffff16857f7145ef2defb5f89cc41cfc54b95f958979256348063a6c59a05e190812424c4c86604051610f929190611ebd565b60405180910390a35050505050565b60606003805480602002602001604051908101604052809291908181526020018280548015610fef57602002820191906000526020600020905b815481526020019060010190808311610fdb575b5050505050905090565b606081600073ffffffffffffffffffffffffffffffffffffffff166001600083815260200190815260200160002060000160009054906101000a900473ffffffffffffffffffffffffffffffffffffffff1673ffffffffffffffffffffffffffffffffffffffff16036110a1576040517f08c379a00000000000000000000000000000000000000000000000000000000081526004016110989061299c565b60405180910390fd5b826001600082815260200190815260200160002060040160009054906101000a900460ff1615611106576040517f08c379a00000000000000000000000000000000000000000000000000000000081526004016110fd90612a74565b60405180910390fd5b60006001600086815260200190815260200160002090506000816005018054905067ffffffffffffffff8111156111405761113f611d0a565b5b60405190808252806020026020018201604052801561116e5781602001602082028036833780820191505090505b50905060005b826005018054905081101561123d57600083600501828154811061119b5761119a612b63565b5b9060005260206000200160009054906101000a900473ffffffffffffffffffffffffffffffffffffffff1690508360060160008273ffffffffffffffffffffffffffffffffffffffff1673ffffffffffffffffffffffffffffffffffffffff1681526020019081526020016000205483838151811061121d5761121c612b63565b5b60200260200101818152505050808061123590612bc1565b915050611174565b5080945050505050919050565b80600073ffffffffffffffffffffffffffffffffffffffff166001600083815260200190815260200160002060000160009054906101000a900473ffffffffffffffffffffffffffffffffffffffff1673ffffffffffffffffffffffffffffffffffffffff16036112f0576040517f08c379a00000000000000000000000000000000000000000000000000000000081526004016112e79061299c565b60405180910390fd5b816001600082815260200190815260200160002060040160009054906101000a900460ff1615611355576040517f08c379a000000000000000000000000000000000000000000000000000000000815260040161134c90612a74565b60405180910390fd5b60006001600085815260200190815260200160002090503373ffffffffffffffffffffffffffffffffffffffff168160000160009054906101000a900473ffffffffffffffffffffffffffffffffffffffff1673ffffffffffffffffffffffffffffffffffffffff16036113fe576040517f08c379a00000000000000000000000000000000000000000000000000000000081526004016113f590612c55565b60405180910390fd5b80600501339080600181540180825580915050600190039060005260206000200160009091909190916101000a81548173ffffffffffffffffffffffffffffffffffffffff021916908373ffffffffffffffffffffffffffffffffffffffff1602179055503373ffffffffffffffffffffffffffffffffffffffff16847f1627e29a9bb529caeaf45be5c58a7196ef99f4adf97e0b74bc5bd4101b16edc760405160405180910390a350505050565b600082600073ffffffffffffffffffffffffffffffffffffffff166001600083815260200190815260200160002060000160009054906101000a900473ffffffffffffffffffffffffffffffffffffffff1673ffffffffffffffffffffffffffffffffffffffff1603611555576040517f08c379a000000000000000000000000000000000000000000000000000000000815260040161154c9061299c565b60405180910390fd5b60006001600086815260200190815260200160002090508060060160008573ffffffffffffffffffffffffffffffffffffffff1673ffffffffffffffffffffffffffffffffffffffff168152602001908152602001600020549250505092915050565b803373ffffffffffffffffffffffffffffffffffffffff166001600083815260200190815260200160002060000160009054906101000a900473ffffffffffffffffffffffffffffffffffffffff1673ffffffffffffffffffffffffffffffffffffffff161461165d576040517f08c379a000000000000000000000000000000000000000000000000000000000815260040161165490612a08565b60405180910390fd5b81600073ffffffffffffffffffffffffffffffffffffffff166001600083815260200190815260200160002060000160009054906101000a900473ffffffffffffffffffffffffffffffffffffffff1673ffffffffffffffffffffffffffffffffffffffff1603611703576040517f08c379a00000000000000000000000000000000000000000000000000000000081526004016116fa9061299c565b60405180910390fd5b826001600082815260200190815260200160002060040160009054906101000a900460ff1615611768576040517f08c379a000000000000000000000000000000000000000000000000000000000815260040161175f90612a74565b60405180910390fd5b611770611bde565b600060016000868152602001908152602001600020905060008160010154905060008260000160006101000a81548173ffffffffffffffffffffffffffffffffffffffff021916908373ffffffffffffffffffffffffffffffffffffffff16021790555060008260000160146101000a81548160ff021916908360ff160217905550600082600101819055506040518060200160405280600081525082600201908161181c9190612855565b5060008260040160006101000a81548160ff02191690831515021790555081600501600061184a9190611c2e565b600060026000888152602001908152602001600020549050600360016003805490506118769190612b2f565b8154811061188757611886612b63565b5b9060005260206000200154600382815481106118a6576118a5612b63565b5b906000526020600020018190555060038054806118c6576118c5612b92565b5b600190038181906000526020600020016000905590556002600088815260200190815260200160002060009055867f30f2f310d3b4fb8a2383e8663ae3adbf4b56b79e65fbea673c85cafd798c619b60405160405180910390a23373ffffffffffffffffffffffffffffffffffffffff166108fc839081150290604051600060405180830381858888f19350505050158015611966573d6000803e3d6000fd5b50505050611972611c24565b50505050565b600081600073ffffffffffffffffffffffffffffffffffffffff166001600083815260200190815260200160002060000160009054906101000a900473ffffffffffffffffffffffffffffffffffffffff1673ffffffffffffffffffffffffffffffffffffffff1603611a20576040517f08c379a0000000000000000000000000000000000000000000000000000000008152600401611a179061299c565b60405180910390fd5b6000600160008581526020019081526020016000209050806001015492505050919050565b60006003805490508210611a8e576040517f08c379a0000000000000000000000000000000000000000000000000000000008152600401611a8590612cc1565b60405180910390fd5b60038281548110611aa257611aa1612b63565b5b90600052602060002001549050919050565b600460003373ffffffffffffffffffffffffffffffffffffffff1673ffffffffffffffffffffffffffffffffffffffff16815260200190815260200160002060009054906101000a900460ff1615611b41576040517f08c379a0000000000000000000000000000000000000000000000000000000008152600401611b3890612d2d565b60405180910390fd5b6001600460003373ffffffffffffffffffffffffffffffffffffffff1673ffffffffffffffffffffffffffffffffffffffff16815260200190815260200160002060006101000a81548160ff0219169083151502179055503373ffffffffffffffffffffffffffffffffffffffff167ffde169c7a1e7ae65e55d12565b943b41f7a7d8c676099b34a09205e5693dd9e560405160405180910390a2565b600260005403611c1a576040517f3ee5aeb500000000000000000000000000000000000000000000000000000000815260040160405180910390fd5b6002600081905550565b6001600081905550565b5080546000825590600052602060002090810190611c4c9190611c4f565b50565b5b80821115611c68576000816000905550600101611c50565b5090565b6000604051905090565b600080fd5b600080fd5b600060ff82169050919050565b611c9681611c80565b8114611ca157600080fd5b50565b600081359050611cb381611c8d565b92915050565b6000819050919050565b611ccc81611cb9565b8114611cd757600080fd5b50565b600081359050611ce981611cc3565b92915050565b600080fd5b600080fd5b6000601f19601f8301169050919050565b7f4e487b7100000000000000000000000000000000000000000000000000000000600052604160045260246000fd5b611d4282611cf9565b810181811067ffffffffffffffff82111715611d6157611d60611d0a565b5b80604052505050565b6000611d74611c6c565b9050611d808282611d39565b919050565b600067ffffffffffffffff821115611da057611d9f611d0a565b5b611da982611cf9565b9050602081019050919050565b82818337600083830152505050565b6000611dd8611dd384611d85565b611d6a565b905082815260208101848484011115611df457611df3611cf4565b5b611dff848285611db6565b509392505050565b600082601f830112611e1c57611e1b611cef565b5b8135611e2c848260208601611dc5565b91505092915050565b600080600060608486031215611e4e57611e4d611c76565b5b6000611e5c86828701611ca4565b9350506020611e6d86828701611cda565b925050604084013567ffffffffffffffff811115611e8e57611e8d611c7b565b5b611e9a86828701611e07565b9150509250925092565b6000819050919050565b611eb781611ea4565b82525050565b6000602082019050611ed26000830184611eae565b92915050565b611ee181611ea4565b8114611eec57600080fd5b50565b600081359050611efe81611ed8565b92915050565b600060208284031215611f1a57611f19611c76565b5b6000611f2884828501611eef565b91505092915050565b600073ffffffffffffffffffffffffffffffffffffffff82169050919050565b6000611f5c82611f31565b9050919050565b611f6c81611f51565b82525050565b611f7b81611c80565b82525050565b611f8a81611cb9565b82525050565b600081519050919050565b600082825260208201905092915050565b60005b83811015611fca578082015181840152602081019050611faf565b60008484015250505050565b6000611fe182611f90565b611feb8185611f9b565b9350611ffb818560208601611fac565b61200481611cf9565b840191505092915050565b60008115159050919050565b6120248161200f565b82525050565b600060c08201905061203f6000830189611f63565b61204c6020830188611f72565b6120596040830187611f81565b818103606083015261206b8186611fd6565b9050818103608083015261207f8185611fd6565b905061208e60a083018461201b565b979650505050505050565b6120a281611f51565b81146120ad57600080fd5b50565b6000813590506120bf81612099565b92915050565b6000602082840312156120db576120da611c76565b5b60006120e9848285016120b0565b91505092915050565b6000602082019050612107600083018461201b565b92915050565b600081519050919050565b600082825260208201905092915050565b6000819050602082019050919050565b61214281611f51565b82525050565b60006121548383612139565b60208301905092915050565b6000602082019050919050565b60006121788261210d565b6121828185612118565b935061218d83612129565b8060005b838110156121be5781516121a58882612148565b97506121b083612160565b925050600181019050612191565b5085935050505092915050565b600060208201905081810360008301526121e5818461216d565b905092915050565b60006121f882611f31565b9050919050565b612208816121ed565b811461221357600080fd5b50565b600081359050612225816121ff565b92915050565b60008060006060848603121561224457612243611c76565b5b600061225286828701611eef565b935050602061226386828701612216565b925050604061227486828701611eef565b9150509250925092565b6000806040838503121561229557612294611c76565b5b60006122a385828601611eef565b92505060206122b485828601611eef565b9150509250929050565b600081519050919050565b600082825260208201905092915050565b6000819050602082019050919050565b6122f381611ea4565b82525050565b600061230583836122ea565b60208301905092915050565b6000602082019050919050565b6000612329826122be565b61233381856122c9565b935061233e836122da565b8060005b8381101561236f57815161235688826122f9565b975061236183612311565b925050600181019050612342565b5085935050505092915050565b60006020820190508181036000830152612396818461231e565b905092915050565b600080604083850312156123b5576123b4611c76565b5b60006123c385828601611eef565b92505060206123d4858286016120b0565b9150509250929050565b60006020820190506123f36000830184611f81565b92915050565b60006020828403121561240f5761240e611c76565b5b600061241d84828501611cda565b91505092915050565b7f4e6f742061207265676973746572656420697373756572000000000000000000600082015250565b600061245c601783611f9b565b915061246782612426565b602082019050919050565b6000602082019050818103600083015261248b8161244f565b9050919050565b7f526577617264206d75737420626520657175616c20746f207468652073656e7460008201527f2076616c75650000000000000000000000000000000000000000000000000000602082015250565b60006124ee602683611f9b565b91506124f982612492565b604082019050919050565b6000602082019050818103600083015261251d816124e1565b9050919050565b60008160601b9050919050565b600061253c82612524565b9050919050565b600061254e82612531565b9050919050565b61256661256182611f51565b612543565b82525050565b60008160f81b9050919050565b60006125848261256c565b9050919050565b61259c61259782611c80565b612579565b82525050565b600081905092915050565b60006125b882611f90565b6125c281856125a2565b93506125d2818560208601611fac565b80840191505092915050565b6000819050919050565b6125f96125f482611cb9565b6125de565b82525050565b600061260b8287612555565b60148201915061261b828661258b565b60018201915061262b82856125ad565b915061263782846125e8565b60208201915081905095945050505050565b7f4e487b7100000000000000000000000000000000000000000000000000000000600052602260045260246000fd5b6000600282049050600182168061269057607f821691505b6020821081036126a3576126a2612649565b5b50919050565b60008190508160005260206000209050919050565b60006020601f8301049050919050565b600082821b905092915050565b60006008830261270b7fffffffffffffffffffffffffffffffffffffffffffffffffffffffffffffffff826126ce565b61271586836126ce565b95508019841693508086168417925050509392505050565b6000819050919050565b600061275261274d61274884611cb9565b61272d565b611cb9565b9050919050565b6000819050919050565b61276c83612737565b61278061277882612759565b8484546126db565b825550505050565b600090565b612795612788565b6127a0818484612763565b505050565b5b818110156127c4576127b960008261278d565b6001810190506127a6565b5050565b601f821115612809576127da816126a9565b6127e3846126be565b810160208510156127f2578190505b6128066127fe856126be565b8301826127a5565b50505b505050565b600082821c905092915050565b600061282c6000198460080261280e565b1980831691505092915050565b6000612845838361281b565b9150826002028217905092915050565b61285e82611f90565b67ffffffffffffffff81111561287757612876611d0a565b5b6128818254612678565b61288c8282856127c8565b600060209050601f8311600181146128bf57600084156128ad578287015190505b6128b78582612839565b86555061291f565b601f1984166128cd866126a9565b60005b828110156128f5578489015182556001820191506020850194506020810190506128d0565b86831015612912578489015161290e601f89168261281b565b8355505b6001600288020188555050505b505050505050565b600060408201905061293c6000830185611f72565b6129496020830184611f81565b9392505050565b7f426f756e747920646f6573206e6f742065786973740000000000000000000000600082015250565b6000612986601583611f9b565b915061299182612950565b602082019050919050565b600060208201905081810360008301526129b581612979565b9050919050565b7f4e6f7420746865207375626d6974746572000000000000000000000000000000600082015250565b60006129f2601183611f9b565b91506129fd826129bc565b602082019050919050565b60006020820190508181036000830152612a21816129e5565b9050919050565b7f426f756e747920697320616c726561647920617070726f766564000000000000600082015250565b6000612a5e601a83611f9b565b9150612a6982612a28565b602082019050919050565b60006020820190508181036000830152612a8d81612a51565b9050919050565b7f4e6f207265706f7274207375626d697474656400000000000000000000000000600082015250565b6000612aca601383611f9b565b9150612ad582612a94565b602082019050919050565b60006020820190508181036000830152612af981612abd565b9050919050565b7f4e487b7100000000000000000000000000000000000000000000000000000000600052601160045260246000fd5b6000612b3a82611cb9565b9150612b4583611cb9565b9250828203905081811115612b5d57612b5c612b00565b5b92915050565b7f4e487b7100000000000000000000000000000000000000000000000000000000600052603260045260246000fd5b7f4e487b7100000000000000000000000000000000000000000000000000000000600052603160045260246000fd5b6000612bcc82611cb9565b91507fffffffffffffffffffffffffffffffffffffffffffffffffffffffffffffffff8203612bfe57612bfd612b00565b5b600182019050919050565b7f5375626d69747465722063616e6e6f7420726567697374657200000000000000600082015250565b6000612c3f601983611f9b565b9150612c4a82612c09565b602082019050919050565b60006020820190508181036000830152612c6e81612c32565b9050919050565b7f496e646578206f7574206f6620626f756e647300000000000000000000000000600082015250565b6000612cab601383611f9b565b9150612cb682612c75565b602082019050919050565b60006020820190508181036000830152612cda81612c9e565b9050919050565b7f49737375657220616c7265616479207265676973746572656400000000000000600082015250565b6000612d17601983611f9b565b9150612d2282612ce1565b602082019050919050565b60006020820190508181036000830152612d4681612d0a565b905091905056fea26469706673582212209ec066326e07d7e7418c47d960de43976799e3ecefe1b00e11dc0498afb586f064736f6c63430008140033",
  "linkReferences": {},
  "deployedLinkReferences": {}
}